:100000000C9473000C94770A0C9490000C94A00A42
:100010000C94680C0C942C0C0C9490000C94900094
:100020000C9490000C9490000C94170B0C9490007E
:100030000C9490000C94E40C0C940D0D0C94360D63
:100040000C9490000C9490000C9490000C949000F0
:100050000C949000CE0097009700970097009700AF
:1000600097009700970097009700970097009700D8
:100070009700970097009700AD00F5009700970054
:10008000AA00B600BC009700970097009700970061
:1000900097009700970097009700B0009700E10045
:1000A0001901EB0007019700970097009700970050
:1000B00097009700970097009700FE009700970021
:1000C000970097009700B300B9009700970097003A
:1000D000970097009700BF00970097009700E600F1
:1000E0001E01F000100111241FBECFE5D8E0DEBFD5
:1000F000CDBF10E0A0E6B0E0EAEFF7E202C0059065
:100100000D92A638B107D9F710E0A6E8B0E001C01B
:100110001D92A93AB107E1F70E94E1010C94FB138B
:100120000C940000CF93DF930F92CDB7DEB7CE01D2
:1001300001960E946F02898190E0C09789349105F1
:10014000B0F7865D9F4FFC01EE0FFF1F0590F49105
:10015000E02D09940E94F404EACF0E940E05E7CF37
:100160000E942805E4CF0E944205E1CF0E945C0571
:10017000DECF0E949005DBCF0E947605D8CF80911C
:100180006000909161008436910588F60196909305
:100190006100809360000E94AB05C9CF8091600030
:1001A00090916100009719F20197909361008093FC
:1001B0006000009719F40E942805B9CF0E94AB0592
:1001C000B6CF80E062E00E94AF04B1CF80E062E091
:1001D0000E94B704ACCF80E061E00E94AF04A7CFDB
:1001E00080E061E00E94B704A2CF80E064E00E945A
:1001F000AF0480E063E00E94B70499CF80E064E040
:100200000E94B70480E063E00E94B70490CF80E0D2
:1002100064E00E94B70480E063E00E94AF0487CFEF
:1002200080E064E00E94B70480E063E00E94B704CD
:100230007ECF80E065E00E94550279CF80E065E0E6
:100240000E945D0274CFCF93DF93CDB7DEB72C97BA
:100250000FB6F894DEBF0FBECDBFCE0101960E944F
:10026000370669817A818B819C8120E030E040EF04
:1002700051E40E940E0F18161CF40E94F40497C05B
:1002800080E062E00E94AF0480E065E00E945502D9
:100290000E940E058FEF99E6A8E181509040A040A2
:1002A000E1F700C0000080E062E00E94B70480E057
:1002B00065E00E945D020E94280560E070E0CB01CD
:1002C0000E941906CE0105960E9437068FEF99E627
:1002D000A8E181509040A040E1F700C0000060E03C
:1002E00070E084E393E40E941906CE0109960E940F
:1002F00037068FEF99E6A8E181509040A040E1F7E2
:1003000000C000006D817E818F81988529853A85A6
:100310004B855C850E940E0F18162CF560E070E08E
:1003200084EB92E40E9419068FEF91EEA4E08150D5
:100330009040A040E1F700C000000E94420580E02C
:1003400064E00E94AF048FEF99E6A8E181509040ED
:10035000A040E1F700C0000080E064E00E94B70424
:100360000E94280524C060E070E084EB92E40E94C3
:1003700019068FEF91EEA4E081509040A040E1F784
:1003800000C000000E945C0580E063E00E94AF04B2
:100390008FEF99E6A8E181509040A040E1F700C0BE
:1003A000000080E063E00E94B7040E9428058FEF00
:1003B00099E6A8E181509040A040E1F700C000001C
:1003C0004CCFCF93DF930F92CDB7DEB70E94C90A0F
:1003D00083E062E00E94370283E062E0AE014F5F9B
:1003E0005F4F20E00E9446020E946C020E94C604F9
:1003F0000E94F404809160000E94AB050E941106E7
:1004000060E070E084EB92E40E9419060E943106DD
:1004100080E062E00E94A70480E064E00E94A704FC
:1004200080E063E00E94A70480E061E00E94A704EE
:1004300080E065E00E944D0280E064E00E94B70425
:1004400080E063E00E94B70480E062E00E94B704AD
:1004500080E061E00E94B70480E065E00E945D02F8
:100460008981882311F40E9423010E949200843024
:1004700028F4683018F440E00E940707089584309B
:1004800020F4683010F40E94D5080895843020F4D8
:10049000683010F40E9481080895843028F4683090
:1004A00018F441E00E9407070895843028F468306A
:1004B00018F441E00E949D070895843028F46830C4
:1004C00018F440E00E949D070895843020F46830BD
:1004D00010F40E94330808950E94A50C08950E940C
:1004E000B20C08950E94BA0C08950E94BF0C0895A2
:1004F000CF93C82F80FD06C082E064E040E00E94F8
:100500009D0705C082E064E041E00E949D078C2FBA
:10051000869580FD06C082E065E040E00E949D0770
:1005200005C082E065E041E00E949D078C2F869522
:10053000869580FD06C082E066E040E00E949D074F
:1005400005C082E066E041E00E949D07C695C69521
:10055000C695C0FD06C082E067E040E00E949D07AE
:1005600005C082E067E041E00E949D07CF910895B9
:10057000CF93C82F81E061E040E00E949D0781E0B9
:1005800062E040E00E949D078C2F82958F700E9450
:10059000780281E063E041E00E949D078FE99FE0DF
:1005A0000197F1F700C0000081E063E040E00E94A5
:1005B0009D078C2F0E94780281E063E041E00E9459
:1005C0009D078FE99FE00197F1F700C0000081E0EF
:1005D00063E040E00E949D07CF91089581E061E0D3
:1005E00041E00E94070781E062E041E00E940707C6
:1005F00081E063E041E00E94070782E064E041E0BF
:100600000E94070782E065E041E00E94070782E060
:1006100066E041E00E94070782E067E041E00E9457
:1006200007078FE795EBA1E081509040A040E1F7EC
:1006300000C0000081E061E040E00E949D0781E091
:1006400062E040E00E949D0782E00E94780281E023
:1006500063E041E00E949D07AFE9BFE01197F1F729
:1006600000C0000081E063E040E00E949D0788E256
:100670000E94B802B0EFBA95F1F78CE00E94B80280
:1006800080EF8A95F1F781E00E94B802AFE3BFE105
:100690001197F1F700C0000086E00E94B802B0EFA9
:1006A000BA95F1F70895CF93C82F81E061E041E05A
:1006B0000E949D0781E062E040E00E949D078C2F30
:1006C00082958F700E94780281E063E041E00E9491
:1006D0009D078FE99FE00197F1F700C0000081E0DE
:1006E00063E040E00E949D078C2F0E94780281E029
:1006F00063E041E00E949D078FE99FE00197F1F7D9
:1007000000C0000081E063E040E00E949D07CF91BF
:100710000895CF93DF93EC018881882331F02196EF
:100720000E94530389918823D9F7DF91CF910895CF
:100730008F929F92AF92BF92CF92DF92EF92FF92F1
:100740000F931F93CF93DF93CDB7DEB760970FB6AC
:10075000F894DEBF0FBECDBF6B017C0120E030E01E
:10076000A9010E94C40D88235CF4F7FAF094F7F80D
:10077000F0940F2EF2E68F2EF0E09F2EF02D06C0A3
:100780000F2EF4E68F2EF0E09F2EF02DC701B6015C
:100790000E94300EDC01CB012DB73EB72A5030400D
:1007A0000FB6F8943EBF0FBE2DBF0DB71EB70F5F3B
:1007B0001F4F5E010894A11CB11CEDB7FEB7B282B9
:1007C000A18225E630E0F80133832283958284827A
:1007D00097838683BC0180E090E00E945C0E9B01C1
:1007E000AC01C701B6010E945F0D20E030E44CE18E
:1007F00056E40E94120F0E94300EDC01CB01F8017A
:10080000918780870E9424112DB73EB7265F3F4F06
:100810000FB6F8943EBF0FBE2DBFC5010E948903DD
:1008200060960FB6F894DEBF0FBECDBFDF91CF91BB
:100830001F910F91FF90EF90DF90CF90BF90AF90FE
:100840009F908F90089581E00E94B8028FE39FE10E
:100850000197F1F700C0000080E80E94B8020895F7
:10086000CF93DF9300D000D0CDB7DEB790E8998367
:1008700090EC9A8394E99B8394ED9C838150FE01D4
:10088000E60FF11D9081890F0E94B8028FE99FE069
:100890000197F1F700C000000F900F900F900F909C
:1008A000DF91CF9108950F931F93CF93DF93CDB72F
:1008B000DEB7A0970FB6F894DEBF0FBECDBF2DB741
:1008C0003EB7285030400FB6F8943EBF0FBE2DBF44
:1008D000EDB7FEB731968E010F5F1F4FADB7BEB7B4
:1008E00012961C930E93119721E130E033832283FB
:1008F0002FE630E035832483978386830E94F410AB
:100900002DB73EB7285F3F4F0FB6F8943EBF0FBEDE
:100910002DBFC8010E948903A0960FB6F894DEBFD0
:100920000FBECDBFDF91CF911F910F910895CF934F
:10093000DF93EC01862F642F0E943004CE010E94C9
:100940005304DF91CF9108950E94B8020895843036
:1009500028F4683018F441E00E94070708958430B5
:1009600028F4683018F441E00E949D07089584300F
:1009700028F4683018F440E00E949D070895843000
:1009800020F4683010F40E943308089581E064E098
:1009900041E00E94070781E065E041E00E9407070F
:1009A00081E066E041E00E94070781E067E041E006
:1009B0000E94070783E067E041E00E94070781E0AB
:1009C00064E040E00E949D0781E065E040E00E9415
:1009D0009D0781E066E040E00E949D0781E067E0BE
:1009E00040E00E949D07089583E067E041E00E9497
:1009F0009D0781E064E040E00E949D0781E065E0A2
:100A000041E00E949D0781E066E040E00E949D0772
:100A100081E067E041E00E949D07089583E067E080
:100A200041E00E949D0781E064E041E00E949D0753
:100A300081E065E040E00E949D0781E066E041E0E2
:100A40000E949D0781E067E040E00E949D070895B5
:100A500083E067E041E00E949D0781E064E040E0C0
:100A60000E949D0781E065E040E00E949D0781E0D3
:100A700066E040E00E949D0781E067E040E00E9460
:100A80009D07089583E067E041E00E949D0781E0B3
:100A900064E040E00E949D0781E065E041E00E9443
:100AA0009D0781E066E040E00E949D0781E067E0ED
:100AB00040E00E949D07089583E067E041E00E94C6
:100AC0009D0781E064E040E00E949D0781E065E0D1
:100AD00040E00E949D0781E066E040E00E949D07A3
:100AE00081E067E041E00E949D07089583E067E0B0
:100AF00041E00E949D0781E064E040E00E949D0784
:100B000081E065E040E00E949D0781E066E041E011
:100B10000E949D0781E067E040E00E949D070895E4
:100B200083E067E041E00E949D0781E064E041E0EE
:100B30000E949D0781E065E040E00E949D0781E002
:100B400066E040E00E949D0781E067E040E00E948F
:100B50009D0708950895CF93C82F0E94C60B6C2F50
:100B600070E080E090E00E945C0E0E94EE0B0E941C
:100B7000D30BCF910895CF93DF9381E064E0C0E081
:100B8000D0E0AE010E9481088881813081F48FEF2E
:100B900096E1A1E181509040A040E1F700C0000043
:100BA000809186008B3518F0865F8093860081E007
:100BB00065E0C0E0D0E0AE010E948108888181300C
:100BC00081F48FEF96E1A1E181509040A040E1F7E0
:100BD00000C00000809186008B3018F08A5080930E
:100BE000860081E066E0C0E0D0E0AE010E948108AE
:100BF0008881813059F48FEF96E1A1E181509040D6
:100C0000A040E1F700C0000010928600909186009D
:100C100080E064E670E00E94750F63BDDF91CF91C4
:100C2000089583E065E041E00E9407070E94540BAD
:100C3000089520E030E040E152E40E94C80D20E039
:100C400030E040EA50E40E94600DAB01BC0182E359
:100C500090E00E94810B0E946D0B08950E94770B1B
:100C6000089583E066E041E00E9407070895CF936E
:100C7000DF93EC0183E066E041E00E949D0725E3FD
:100C80002A95F1F7000083E066E040E00E949D07AE
:100C9000839BFECF839B0DC080E090E0DC0125E0CC
:100CA0002A95F1F700000196A11DB11D8399F7CF98
:100CB00003C080E090E0DC01BC01CD010E945C0E2D
:100CC00020E030E040E252E40E94C80DDC01CB019C
:100CD00088839983AA83BB83DF91CF9108958F92F4
:100CE0009F92AF92BF92CF92DF92EF92FF920F93BB
:100CF0001F93CF93DF93CDB7DEB760970FB6F8940D
:100D0000DEBF0FBECDBF6B017C0120E030E0A9014A
:100D10000E94C40D88235CF4F7FAF094F7F8F0947D
:100D20000F2EF2E78F2EF0E09F2EF02D06C00F2E33
:100D3000F4E78F2EF0E09F2EF02DC701B6010E9440
:100D4000300EDC01CB012DB73EB72A5030400FB634
:100D5000F8943EBF0FBE2DBF0DB71EB70F5F1F4FDC
:100D60005E010894A11CB11CEDB7FEB7B282A1824E
:100D700025E730E0F80133832283958284829783CC
:100D80008683BC0180E090E00E945C0E9B01AC0178
:100D9000C701B6010E945F0D20E030E44CE156E44B
:100DA0000E94120F0E94300EDC01CB01F8019187E6
:100DB00080870E942411F50101900020E9F7CF01FE
:100DC0002DB73EB7265F3F4F0FB6F8943EBF0FBE1C
:100DD0002DBF8A199B090E94BE0F182FC92EB5017D
:100DE0000E94ED10812F9C2D60960FB6F894DEBF07
:100DF0000FBECDBFDF91CF911F910F91FF90EF906C
:100E0000DF90CF90BF90AF909F908F9008958430E7
:100E100008F08BC0683008F08AC0423008F089C002
:100E2000813041F1813038F0823009F441C08330A3
:100E300009F081C05BC0413071F42AB381E090E0D9
:100E4000AC0102C0440F551F6A95E2F7BA01622B4C
:100E50006ABB80E008952AB381E090E0AC0102C053
:100E6000440F551F6A95E2F7BA01609562236ABB89
:100E700080E00895413069F447B321E030E0C901D2
:100E800002C0880F991F6A95E2F7842B87BB80E028
:100E9000089527B381E090E0AC0102C0440F551FD4
:100EA0006A95E2F7BA016095622367BB80E0089516
:100EB000413069F444B321E030E0C90102C0880F39
:100EC000991F6A95E2F7842B84BB80E0089524B3D0
:100ED00081E090E0AC0102C0440F551F6A95E2F733
:100EE000BA016095622364BB80E00895413071F4DB
:100EF00021B381E090E0AC0102C0440F551F6A9518
:100F0000E2F7BA01622B61BB80E0089521B381E072
:100F100090E0AC0102C0440F551F6A95E2F7BA0198
:100F20006095622361BB80E0089581E0089581E0CF
:100F3000089581E0089580E00895843008F08BC022
:100F4000683008F08AC0423008F089C0813041F131
:100F5000813038F0823009F441C0833009F081C01B
:100F60005BC0413071F42BB381E090E0AC0102C072
:100F7000440F551F6A95E2F7BA01622B6BBB80E004
:100F800008952BB381E090E0AC0102C0440F551FDF
:100F90006A95E2F7BA01609562236BBB80E0089521
:100FA000413069F448B321E030E0C90102C0880F44
:100FB000991F6A95E2F7842B88BB80E0089528B3D7
:100FC00081E090E0AC0102C0440F551F6A95E2F742
:100FD000BA016095622368BB80E00895413069F4EE
:100FE00045B321E030E0C90102C0880F991F6A951E
:100FF000E2F7842B85BB80E0089525B381E090E083
:10100000AC0102C0440F551F6A95E2F7BA01609522
:10101000622365BB80E00895413071F422B381E022
:1010200090E0AC0102C0440F551F6A95E2F7BA0187
:10103000622B62BB80E0089522B381E090E0AC01B6
:1010400002C0440F551F6A95E2F7BA01609562230A
:1010500062BB80E0089581E0089581E0089581E019
:10106000089580E00895843008F045C0683008F0A5
:1010700044C08130B1F0813030F0823001F18330F2
:1010800009F03DC02AC02BB381E090E0AC0102C062
:10109000440F551F6A95E2F7BA0162276BBB80E0E7
:1010A000089528B381E090E0AC0102C0440F551FC1
:1010B0006A95E2F7BA01622768BB80E0089525B31C
:1010C00081E090E0AC0102C0440F551F6A95E2F741
:1010D000BA01622765BB80E0089522B381E090E009
:1010E000AC0102C0440F551F6A95E2F7BA016227AE
:1010F00062BB80E0089581E0089581E0089580E07A
:101100000895843008F049C0683008F048C041159F
:10111000510509F446C08130B1F0813030F08230A1
:1011200001F1833009F03FC02AC089B390E09C01EF
:1011300002C0359527956A95E2F7B9016170FA0109
:10114000608380E0089586B390E09C0102C03595ED
:1011500027956A95E2F7B9016170FA01608380E032
:10116000089583B390E09C0102C0359527956A9558
:10117000E2F7B9016170FA01608380E0089580B3FD
:1011800090E09C0102C0359527956A95E2F7B90178
:101190006170FA01608380E0089581E0089581E044
:1011A000089581E0089580E00895843008F045C0F6
:1011B000683008F044C08130B1F0813030F08230C6
:1011C00001F1833009F03DC02AC02BB381E090E0EB
:1011D000AC0102C0440F551F6A95E2F7BA01622BB9
:1011E0006BBB80E0089528B381E090E0AC0102C0C1
:1011F000440F551F6A95E2F7BA01622B68BB80E085
:10120000089525B381E090E0AC0102C0440F551F62
:101210006A95E2F7BA01622B65BB80E0089522B3BC
:1012200081E090E0AC0102C0440F551F6A95E2F7DF
:10123000BA01622B62BB80E0089581E0089581E0ED
:10124000089580E008958430A8F5813091F08130D0
:1012500028F08230C9F0833079F521C06F3F29F43E
:101260008AB38FEF8ABB80E008958AB31ABA80E010
:1012700008956F3F29F487B38FEF87BB80E008950F
:1012800087B317BA80E008956F3F29F484B38FEFD6
:1012900084BB80E0089584B314BA80E008956F3F62
:1012A00029F481B38FEF81BB80E0089581B311BA37
:1012B00080E0089581E0089580E008958430A8F4E6
:1012C000813051F0813028F0823049F0833079F458
:1012D00009C06BBB80E0089568BB80E0089565BBE2
:1012E00080E0089562BB80E0089581E0089580E089
:1012F0000895843000F561157105F9F0813061F0D1
:10130000813028F0823069F08330C9F40FC08BB38C
:10131000FB01808380E0089588B3FB01808380E037
:10132000089585B3FB01808380E0089582B3FB01BB
:10133000808380E0089581E0089581E0089580E051
:1013400008958430E8F4813061F0813028F08230F3
:1013500069F08330B9F40FC08BB380958BBB80E00C
:10136000089588B3809588BB80E0089585B3809503
:1013700085BB80E0089582B3809582BB80E00895AC
:1013800081E0089580E008958430E8F4813061F0D0
:10139000813028F0823069F08330B9F40FC08BB30C
:1013A0008FEF8BBB80E0089588B38FEF88BB80E020
:1013B000089585B38FEF85BB80E0089582B38FEFEA
:1013C00082BB80E0089581E0089580E00895813037
:1013D00071F1813020F0823009F060C050C061307E
:1013E00071F0613028F0623089F06330E1F415C0AB
:1013F00085B7816085BF85B7826085BF14C085B71A
:101400008E7F85BF85B7826085BF0DC085B78E7F13
:1014100085BF85B78D7F85BF06C085B7816085BFD5
:1014200085B78D7F85BF8BB780648BBF0895613092
:1014300071F0613028F0623089F06330E1F415C05A
:1014400085B7846085BF85B7886085BF14C085B7C0
:101450008B7F85BF85B7886085BF0DC085B78B7FC3
:1014600085BF85B7877F85BF06C085B7846085BF88
:1014700085B7877F85BF8BB780688BBF089566234C
:1014800019F0613041F404C084B7806484BF03C0A4
:1014900084B78F7B84BF8BB780628BBF0895813008
:1014A00049F0813018F0823061F408C08BB78F7B2F
:1014B0008BBF08958BB78F778BBF08958BB78F7DC8
:1014C0008BBF0895009721F0909388008093870048
:1014D0000895009721F090938A00809389000895E1
:1014E000009721F090938C0080938B0008951F92B9
:1014F0000F920FB60F9211242F933F934F935F9348
:101500006F937F938F939F93AF93BF93EF93FF93CB
:10151000E0918700F0918800309709F00995FF91DC
:10152000EF91BF91AF919F918F917F916F915F915B
:101530004F913F912F910F900FBE0F901F901895D4
:101540001F920F920FB60F9211242F933F934F9338
:101550005F936F937F938F939F93AF93BF93EF931B
:10156000FF93E0918B00F0918C00309709F0099582
:10157000FF91EF91BF91AF919F918F917F916F916B
:101580005F914F913F912F910F900FBE0F901F9041
:1015900018958FB780688FBF089583B78F7B83BFFF
:1015A00083B7877F83BF12BE89B7816089BF0895E3
:1015B00083B7816083BF83B78D7F83BF83B78B7F02
:1015C00083BF089583B78E7F83BF83B78D7F83BF2B
:1015D00083B78B7F83BF089529EF2CBF90938E0034
:1015E00080938D00089520E030E048EC52E40E94A2
:1015F000C80D20E030E040E853E40E94120F20E0E4
:1016000030E040E85FE30E945F0D0E94300E6CBF47
:101610000895009721F09093900080938F00089593
:10162000009721F0909392008093910008951F926B
:101630000F920FB60F9211242F933F934F935F9306
:101640006F937F938F939F93AF93BF93EF93FF938A
:1016500080919300909194000196909394008093D0
:10166000930020918D0030918E008217930759F4DA
:101670001092940010929300E0919100F0919200EA
:10168000309709F00995FF91EF91BF91AF919F912C
:101690008F917F916F915F914F913F912F910F901B
:1016A0000FBE0F901F9018958FB58E7F8FBD8FB591
:1016B00082608FBD8EB588608EBD8EB580618EBD17
:1016C0008FB58F7B8FBD8FB580688FBD8FB58F7EB7
:1016D0008FBD8FB580628FBD08958EB581608EBD40
:1016E0008EB582608EBD8EB58B7F8EBD08958EB512
:1016F0008E7F8EBD8EB58D7F8EBD8EB58B7F8EBD60
:101700000895CF92DF92EF92FF92CF93DF93EC0197
:101710006A017B01CB01BA0120E030E048EC52E4E1
:101720000E94C40D18165CF19E0140E050E060E993
:1017300070ED83E090E00E94880F2150304037BD6B
:1017400026BD66B577B56F5F7F4F80E090E00E9461
:101750005C0EA70196010E94120F20E030E048ECD9
:1017600052E40E94C80D20E030E040E85FE30E94B0
:101770005F0D0E94300EDC01CB019BBD8ABDDF9165
:10178000CF91FF90EF90DF90CF90089585B5806462
:1017900085BD85B5877F85BD85B5806185BD85B5EE
:1017A000806285BD089585B58E7F85BD85B58D7FA9
:1017B00085BD85B5846085BD089585B58E7F85BD61
:1017C00085B58D7F85BD85B58B7F85BD089529EF56
:1017D00023BD9093960080939500089520E030E01B
:1017E00048EC52E40E94C80D20E030E040E853E4A9
:1017F0000E94120F9B01AC0160E070E08FE793E460
:101800000E945F0D0E94300E63BD089520E030E01D
:1018100048EC52E40E94C80D20E030E040E853E478
:101820000E94120F9B01AC0160E070E080E893E43D
:101830000E945F0D0E94300E63BD0895009721F055
:1018400090939800809397000895009721F09093CB
:101850009A008093990008951F920F920FB60F92ED
:1018600011242F933F934F935F936F937F938F93A5
:101870009F93AF93BF93EF93FF9380919B009091C1
:101880009C00019690939C0080939B0023E0813DF7
:10189000920769F410929C0010929B0081E784BD2E
:1018A000E0919700F0919800309709F00995FF9129
:1018B000EF91BF91AF919F918F917F916F915F91C8
:1018C0004F913F912F910F900FBE0F901F90189541
:1018D0001F920F920FB60F9211242F933F934F93A5
:1018E0005F936F937F938F939F93AF93BF93EF9388
:1018F000FF9380919D0090919E00019690939E0091
:1019000080939D0020919500309196008217930757
:1019100059F410929E0010929D00E0919900F09170
:101920009A00309709F00995FF91EF91BF91AF911F
:101930009F918F917F916F915F914F913F912F91E7
:101940000F900FBE0F901F901895529886E880BD9B
:1019500087E689B910BC5998579A569A559A539A5E
:10196000549A0895009729F05F9BFECF2CB1FC019B
:10197000208308958CB98BB185FFFDCF08950F9317
:101980001F93CF938C01FC018081882351F0C0E02C
:101990000E94BA0CCF5FF801EC0FF11D8081882303
:1019A000B9F7CF911F910F9108959093A000809364
:1019B0009F0008959093A2008093A10008959093B2
:1019C000A4008093A30008951F920F920FB60F9268
:1019D00011242F933F934F935F936F937F938F9334
:1019E0009F93AF93BF93EF93FF93E0919F00F0918C
:1019F000A000309709F00995FF91EF91BF91AF9149
:101A00009F918F917F916F915F914F913F912F9116
:101A10000F900FBE0F901F9018951F920F920FB648
:101A20000F9211242F933F934F935F936F937F9364
:101A30008F939F93AF93BF93EF93FF93E091A10098
:101A4000F091A200309709F00995FF91EF91BF91B5
:101A5000AF919F918F917F916F915F914F913F9146
:101A60002F910F900FBE0F901F9018951F920F92FD
:101A70000FB60F9211242F933F934F935F936F9361
:101A80007F938F939F93AF93BF93EF93FF93E091D7
:101A9000A300F091A400309709F00995FF91EF9110
:101AA000BF91AF919F918F917F916F915F914F9176
:101AB0003F912F910F900FBE0F901F901895505887
:101AC000BB27AA270ED070C161D130F066D120F0BB
:101AD00031F49F3F11F41EF456C10EF4E095E7FB7C
:101AE0004CC1E92F72D180F3BA17620773078407DC
:101AF000950718F071F49EF58AC10EF4E0950B2E4F
:101B0000BA2FA02D0B01B90190010C01CA01A0014F
:101B10001124FF27591B99F0593F50F4503E68F1AA
:101B20001A16F040A22F232F342F4427585FF3CFEB
:101B3000469537952795A795F0405395C9F77EF4BC
:101B40001F16BA0B620B730B840BBAF09150A1F005
:101B5000FF0FBB1F661F771F881FC2F70EC0BA0F8B
:101B6000621F731F841F48F4879577956795B79513
:101B7000F7959E3F08F0B3CF9395880F08F099270B
:101B8000EE0F979587950895D4D008F481E00895D5
:101B90000CD00AC102D140F0F9D030F021F45F3FFF
:101BA00019F0EBC0511134C1EEC00FD198F3992355
:101BB000C9F35523B1F3951B550BBB27AA27621711
:101BC0007307840738F09F5F5F4F220F331F441F56
:101BD000AA1FA9F333D00E2E3AF0E0E830D091508E
:101BE0005040E695001CCAF729D0FE2F27D0660F7B
:101BF000771F881FBB1F261737074807AB07B0E8BA
:101C000009F0BB0B802DBF01FF2793585F4F2AF0CF
:101C10009E3F510568F0B1C0FBC05F3FECF3983EBA
:101C2000DCF3869577956795B795F7959F5FC9F72C
:101C3000880F911D9695879597F90895E1E0660FB5
:101C4000771F881FBB1F621773078407BA0720F02E
:101C5000621B730B840BBA0BEE1F88F7E095089597
:101C6000BCD088F09F5790F0B92F9927B751A0F0BA
:101C7000D1F0660F771F881F991F1AF0BA95C9F720
:101C800012C0B13081F0C3D0B1E00895C0C0672F59
:101C9000782F8827B85F39F0B93FCCF386957795D0
:101CA0006795B395D9F73EF49095809570956195B9
:101CB0007F4F8F4F9F4F0895E89409C097FB3EF4E4
:101CC00090958095709561957F4F8F4F9F4F992389
:101CD000A9F0F92F96E9BB279395F6958795779507
:101CE0006795B795F111F8CFFAF4BB0F11F460FFC7
:101CF0001BC06F5F7F4F8F4F9F4F16C0882311F01F
:101D000096E911C0772321F09EE8872F762F05C032
:101D1000662371F096E8862F70E060E02AF09A95CD
:101D2000660F771F881FDAF7880F9695879597F9C2
:101D30000895990F0008550FAA0BE0E8FEEF16165C
:101D40001706E807F907C0F012161306E407F507AF
:101D500098F0621B730B840B950B39F40A2661F023
:101D6000232B242B252B21F408950A2609F4A140C6
:101D7000A6958FEF811D811D089597F99F6780E8D3
:101D800070E060E008959FEF80EC089500240A94CD
:101D90001616170618060906089500240A94121646
:101DA0001306140605060895092E0394000C11F479
:101DB000882352F0BB0F40F4BF2B11F460FF04C026
:101DC0006F5F7F4F8F4F9F4F089557FD9058440F7F
:101DD000551F59F05F3F71F04795880F97FB991F8A
:101DE00061F09F3F79F08795089512161306140647
:101DF000551FF2CF4695F1DF08C0161617061806D4
:101E0000991FF1CF86957105610508940895E894AE
:101E1000BB2766277727CB0197F908958ADF08F457
:101E20008FEF08950BD0C0CFB1DF28F0B6DF18F0E8
:101E3000952309F0A2CFA7CF1124EACFC6DFA0F3E4
:101E4000959FD1F3950F50E0551F629FF001729F4F
:101E5000BB27F00DB11D639FAA27F00DB11DAA1F6E
:101E6000649F6627B00DA11D661F829F2227B00DBB
:101E7000A11D621F739FB00DA11D621F839FA00D46
:101E8000611D221F749F3327A00D611D231F849F96
:101E9000600D211D822F762F6A2F11249F575040ED
:101EA0008AF0E1F088234AF0EE0FFF1FBB1F661F88
:101EB000771F881F91505040A9F79E3F510570F041
:101EC0005CCFA6CF5F3FECF3983EDCF38695779529
:101ED0006795B795F795E7959F5FC1F7FE2B880F3C
:101EE000911D9695879597F9089597FB092E0726DA
:101EF0000AD077FD04D02ED006D000201AF47095B9
:101F000061957F4F0895F6F7909581959F4F0895BD
:101F1000A1E21A2EAA1BBB1BFD010DC0AA1FBB1FED
:101F2000EE1FFF1FA217B307E407F50720F0A21B5F
:101F3000B30BE40BF50B661F771F881F991F1A94CC
:101F400069F760957095809590959B01AC01BD01F6
:101F5000CF010895AA1BBB1B51E107C0AA1FBB1FDD
:101F6000A617B70710F0A61BB70B881F991F5A9525
:101F7000A9F780959095BC01CD010895CF93DF938B
:101F8000AC018230910510F442E050E0E091A700EE
:101F9000F091A80020E030E0A0E0B0E024C0808113
:101FA000918184179507D0F08417950771F4828189
:101FB0009381109729F013969C938E9312972CC0BF
:101FC0009093A8008093A70027C02115310519F030
:101FD0008217930718F49C01BD01EF019281838160
:101FE000DF01E92FF82F3097D1F621153105F9F0EF
:101FF000C901841B950B8430910580F48A819B81F3
:102000006115710521F0FB019383828304C09093D5
:10201000A8008093A700FE01329642C0FE01E80F9F
:10202000F91F4193519302979983888339C0809116
:10203000A5009091A600009741F4809181009091B5
:1020400082009093A6008093A50020917F0030919C
:1020500080002115310541F42DB73EB780918300F2
:1020600090918400281B390BE091A500F091A60007
:10207000E217F30798F42E1B3F0B2417350770F077
:10208000CA0102962817390748F08E0F9F1F9093B8
:10209000A6008093A5004193519302C0E0E0F0E0D8
:1020A000CF01DF91CF9108950F931F93CF93DF93CB
:1020B0009C01009709F48CC0DC01129713961C92C6
:1020C0001E9212976091A7007091A800611571058A
:1020D00089F48D919C911197820F931F2091A500F7
:1020E0003091A6002817390769F5B093A600A09390
:1020F000A5006EC0FB0140E050E001C0FC01EA1702
:10210000FB0730F482819381AF010097B9F71FC0BC
:10211000E9012297FB83EA8308811981C901800FB5
:10212000911F8E179F0759F480819181800F911F15
:10213000029699838883828193819B838A83411548
:10214000510529F4B093A800A093A70041C0FA015B
:10215000B383A283C191D191EC0FFD1FAE17BF07CE
:1021600081F4F901929182918C0F9D1F0296DA0100
:1021700011969C938E938281938113969C938E9358
:102180001297E0E0F0E002C0FB01BC01DB01129617
:102190008D919C9113970097B9F7CB0102962D91E1
:1021A0003C911197820F931F2091A5003091A600BA
:1021B0002817390769F4309729F41092A800109273
:1021C000A70002C0138212827093A6006093A5003C
:1021D000DF91CF911F910F910895FB01DC010190D8
:1021E0000D920020E1F70895AEE0B0E0EAEFF0E1F3
:1021F0000C94D2130D891E898F89988D26E02C832B
:102200001A83098397FF02C080E090E801979E83BC
:102210008D83AE01455E5F4FCE010196698D7A8D4B
:102220000E9446114D815E8157FD0AC02F8138857D
:10223000421753070CF49A01020F131FF801108282
:102240002E96E4E00C94EE13AEE0B0E0EAE2F1E1A9
:102250000C94D2130D891E8986E08C831A8309831E
:102260008FEF9FE79E838D83AE01475E5F4FCE0168
:1022700001966F89788D0E944611EF81F885E00FF5
:10228000F11F10822E96E4E00C94EE13ADE0B0E066
:10229000ECE4F1E10C94C4133C017D876C875A0196
:1022A000FC0117821682838181FFC8C12E01089428
:1022B000411C511CF3019381EC85FD8593FD8591B3
:1022C00093FF8191FD87EC87882309F4B3C18532A0
:1022D00041F493FD859193FF8191FD87EC878532D1
:1022E00029F490E0B3010E943A13E4CFFF24EE24D6
:1022F00010E01032B0F48B3269F08C3228F4803266
:1023000051F0833271F40BC08D3239F0803349F4CF
:1023100011602CC01260146029C0186027C01061C1
:1023200025C017FD2EC0282F20532A3098F416FF01
:1023300008C08F2D880FF82EFF0CFF0CF80EF20E40
:1023400015C08E2D880FE82EEE0CEE0CE80EE20E76
:1023500010620CC08E3221F416FD6CC1106406C0F0
:102360008C3611F4106802C0883659F4EC85FD856E
:1023700093FD859193FF8191FD87EC87882309F078
:10238000B8CF982F9554933018F09052933038F47A
:1023900024E030E0A20EB31E3FE339830FC0833642
:1023A00031F0833781F0833509F05AC022C0F5013E
:1023B0008081898322E030E0A20EB31E21E0C22E8C
:1023C000D12C420114C092E0292E312C2A0C3B1C46
:1023D000F5018080918016FF03C06F2D70E002C070
:1023E0006FEF7FEFC4010E942F136C0151011F7723
:1023F00015C082E0282E312C2A0C3B1CF501808070
:10240000918016FF03C06F2D70E002C06FEF7FEF69
:10241000C4010E9424136C011068510113FD1CC0FB
:1024200006C080E290E0B3010E943A13EA948E2D38
:1024300090E0C816D906A8F30FC0F40117FD8591E6
:1024400017FF81914F0190E0B3010E943A13E11010
:10245000EA940894C108D108C114D10471F7E7C007
:10246000843611F0893651F5F50117FF07C08081D8
:102470009181A281B38124E030E008C08081918104
:10248000AA2797FDA095BA2F22E030E0A20EB31E36
:10249000012F0F76B7FF08C0B095A0959095819554
:1024A0009F4FAF4FBF4F0068BC01CD01A2012AE092
:1024B00030E00E946613D82ED4183FC0853721F42F
:1024C0001F7E2AE030E020C0197F8F36A9F08037C8
:1024D00020F4883509F0AEC00BC0803721F0883772
:1024E00009F0A8C001C0106114FF09C0146007C042
:1024F00014FF08C0166006C028E030E005C020E1E7
:1025000030E002C020E132E0F50117FF07C0608132
:1025100071818281938144E050E006C060817181C5
:1025200080E090E042E050E0A40EB51EA2010E94BF
:102530006613D82ED418012F0F7706FF09C00E7F1F
:10254000DF1430F404FF06C002FD04C00F7E02C099
:102550001D2D01C01F2D802F90E004FF0CC0FE0137
:10256000ED0DF11D2081203311F4097E09C002FF19
:1025700006C01E5F05C086789070009709F01F5F47
:10258000802E992403FD12C000FF0DC0FD2C1E15E6
:1025900050F4FE0CF11A1E2D06C080E290E0B3014B
:1025A0000E943A131F5F1E15C0F304C01E1510F4DD
:1025B000E11A01C0EE2484FE0FC080E390E0B30175
:1025C0000E943A1382FE1FC081FE03C088E590E09E
:1025D00010C088E790E00DC0C40186789070009725
:1025E00091F081FC02C080E201C08BE207FD8DE228
:1025F00090E0B3010E943A1306C080E390E0B3017B
:102600000E943A13FA94DF14C0F3DA94F201ED0D4C
:10261000F11D808190E0B3010E943A13DD20A9F7FB
:1026200006C080E290E0B3010E943A13EA94EE20E3
:10263000C1F740CEF3018681978102C08FEF9FEFF3
:102640002D96E2E10C94E013FC010590615070407E
:102650000110D8F7809590958E0F9F1F0895FC016B
:102660006150704001900110D8F7809590958E0FC1
:102670009F1F08950F931F93CF93DF938C01EB015E
:102680008B8181FF1BC082FF0DC02E813F818C8119
:102690009D812817390764F4E881F9810193F98352
:1026A000E88306C0E885F985802F0995009731F405
:1026B0008E819F8101969F838E8302C00FEF1FEF53
:1026C000C801DF91CF911F910F910895FA01AA27B8
:1026D000283051F1203181F1E8946F936E7F6E5F65
:1026E0007F4F8F4F9F4FAF4FB1E03ED0B4E03CD013
:1026F000670F781F891F9A1FA11D680F791F8A1FF6
:10270000911DA11D6A0F711D811D911DA11D20D05C
:1027100009F468943F912AE0269F11243019305D16
:102720003193DEF6CF010895462F4770405D419307
:10273000B3E00FD0C9F7F6CF462F4F70405D4A3354
:1027400018F0495D31FD4052419302D0A9F7EACF1C
:10275000B4E0A6959795879577956795BA95C9F74B
:1027600000976105710508959B01AC010A2E06943E
:102770005795479537952795BA95C9F7620F731FF7
:10278000841F951FA01D08952F923F924F925F9234
:102790006F927F928F929F92AF92BF92CF92DF9271
:1027A000EF92FF920F931F93CF93DF93CDB7DEB7D6
:1027B000CA1BDB0B0FB6F894DEBF0FBECDBF09946A
:1027C0002A88398848885F846E847D848C849B84C1
:1027D000AA84B984C884DF80EE80FD800C811B81CF
:1027E000AA81B981CE0FD11D0FB6F894DEBF0FBEFE
:0A27F000CDBFED010895F894FFCF6E
:1027FA0023002D0000257325642E2530346400251E
:10280A0064002D0000257325642E253034640000F1
:06281A0000A900200000EF
:00000001FF
