:100000000C9473000C9468080C9442040C949108AE
:100010000C94590A0C941D0A0C9490000C949000B6
:100020000C9490000C9490000C9408090C94BC045F
:100030000C9490000C94D50A0C94FE0A0C94270B97
:100040000C9490000C9490000C9490000C949000F0
:100050000C949000D00099009900990099009900A3
:1000600099009900990099009900990099009900C8
:100070009900990099009900AF00F7009900990044
:10008000AC00B800BE009900990099009900990051
:1000900099009900990099009900B2009900E30035
:1000A0001B01ED0009019900990099009900990040
:1000B0009900990099009900990000019900990010
:1000C000990099009900B500BB009900990099002A
:1000D000990099009900C100990099009900E800E1
:1000E0002001F200120111241FBECFE5D8E0DEBFCF
:1000F000CDBF10E0A0E6B0E0E0EAFBE102C0059071
:100100000D92A236B107D9F710E0A2E6B0E001C027
:100110001D92AB38B107E1F70E94E3010C94CE0DBC
:100120000C940000CF93DF930F92CDB7DEB70E94FF
:10013000FB02CE0101960E947102898190E0C09776
:1001400089349105B0F7865D9F4FFC01EE0FFF1FCC
:100150000590F491E02D09940E94C702EACF0E9415
:10016000E102E7CF0E94FB02E4CF0E941503E1CF3A
:100170000E942F03DECF0E946303DBCF0E9449035E
:10018000D8CF80916000909161008436910588F607
:10019000019690936100809360000E947E03C9CF16
:1001A0008091600090916100009719F201979093FF
:1001B000610080936000009719F40E94FB02B9CFA0
:1001C0000E947E03B6CF80E062E00E948202B1CF3F
:1001D00080E062E00E948A02ACCF80E061E00E9491
:1001E0008202A7CF80E061E00E948A02A2CF80E075
:1001F00064E00E94820280E063E00E948A0299CF5C
:1002000080E064E00E948A0280E063E00E948A024B
:1002100090CF80E064E00E948A0280E063E00E9468
:10022000820287CF80E064E00E948A0280E063E07F
:100230000E948A027ECF80E065E00E94570279CF5B
:1002400080E065E00E945F0274CFCF93DF93CDB76B
:10025000DEB72C970FB6F894DEBF0FBECDBFCE0130
:1002600001960E941C0469817A818B819C8120E027
:1002700030E040EF51E40E94FF0C18161CF40E947D
:10028000C70297C080E062E00E94820280E065E0E1
:100290000E9457020E94E1028FEF99E6A8E1815087
:1002A0009040A040E1F700C0000080E062E00E94C2
:1002B0008A0280E065E00E945F020E94FB0260E02B
:1002C00070E0CB010E94EC03CE0105960E941C0455
:1002D0008FEF99E6A8E181509040A040E1F700C07F
:1002E000000060E070E084E393E40E94EC03CE0140
:1002F00009960E941C048FEF99E6A8E18150904076
:10030000A040E1F700C000006D817E818F8198855B
:1003100029853A854B855C850E94FF0C18162CF5C3
:1003200060E070E084EB92E40E94EC038FEF91EECA
:10033000A4E081509040A040E1F700C000000E947E
:10034000150380E064E00E9482028FEF99E6A8E145
:1003500081509040A040E1F700C0000080E064E0E0
:100360000E948A020E94FB0224C060E070E084EBDD
:1003700092E40E94EC038FEF91EEA4E08150904054
:10038000A040E1F700C000000E942F0380E063E07E
:100390000E9482028FEF99E6A8E181509040A04030
:1003A000E1F700C0000080E063E00E948A020E9442
:1003B000FB028FEF99E6A8E181509040A040E1F761
:1003C00000C000004CCFCF93DF930F92CDB7DEB7C4
:1003D0000E94BA0883E062E00E94390283E062E092
:1003E000AE014F5F5F4F20E00E9448020E949902D9
:1003F0000E94C702809160000E947E030E94E40375
:1004000060E070E084EB92E40E94EC0380E062E044
:100410000E947A0280E064E00E947A0280E063E059
:100420000E947A0280E061E00E947A0280E065E04A
:100430000E944F0280E064E00E948A0280E063E054
:100440000E948A0280E062E00E948A0280E061E00D
:100450000E948A0280E065E00E945F028981882311
:1004600021F40E9404040E9425010E946E020E9451
:100470009200843028F4683018F440E00E94F804B8
:100480000895843020F4683010F40E94C606089560
:10049000843020F4683010F40E947206089584308D
:1004A00028F4683018F441E00E94F804089584307C
:1004B00028F4683018F441E00E948E0508958430D5
:1004C00028F4683018F440E00E948E0508958430C6
:1004D00020F4683010F40E94240608950E94960AC1
:1004E00008950E94A30A08950E94AB0A08950E94ED
:1004F000B00A0895843028F4683018F441E00E946E
:10050000F8040895843028F4683018F441E00E941B
:100510008E050895843028F4683018F440E00E9475
:100520008E050895843020F4683010F40E9424066B
:10053000089581E064E041E00E94F80481E065E014
:1005400041E00E94F80481E066E041E00E94F80486
:1005500081E067E041E00E94F80483E067E041E069
:100560000E94F80481E064E040E00E948E0581E092
:1005700065E040E00E948E0581E066E040E00E9478
:100580008E0581E067E040E00E948E05089583E0DB
:1005900067E041E00E948E0581E064E040E00E9457
:1005A0008E0581E065E041E00E948E0581E066E015
:1005B00040E00E948E0581E067E041E00E948E05E8
:1005C000089583E067E041E00E948E0581E064E0E9
:1005D00041E00E948E0581E065E040E00E948E05CA
:1005E00081E066E041E00E948E0581E067E040E046
:1005F0000E948E05089583E067E041E00E948E0529
:1006000081E064E040E00E948E0581E065E040E02A
:100610000E948E0581E066E040E00E948E0581E048
:1006200067E040E00E948E05089583E067E041E0C6
:100630000E948E0581E064E040E00E948E0581E02A
:1006400065E041E00E948E0581E066E040E00E94A6
:100650008E0581E067E040E00E948E05089583E00A
:1006600067E041E00E948E0581E064E040E00E9486
:100670008E0581E065E040E00E948E0581E066E045
:1006800040E00E948E0581E067E041E00E948E0517
:10069000089583E067E041E00E948E0581E064E018
:1006A00040E00E948E0581E065E040E00E948E05FA
:1006B00081E066E041E00E948E0581E067E040E075
:1006C0000E948E05089583E067E041E00E948E0558
:1006D00081E064E041E00E948E0581E065E040E059
:1006E0000E948E0581E066E040E00E948E0581E078
:1006F00067E040E00E948E0508950895CF93C82FCB
:100700000E94B7096C2F70E080E090E00E944D0CD1
:100710000E94DF090E94C409CF910895CF93DF930F
:1007200081E064E0C0E0D0E0AE010E947206888102
:10073000813081F48FEF96E1A1E181509040A0409B
:10074000E1F700C00000809162008B3518F0865FF1
:100750008093620081E065E0C0E0D0E0AE010E94DD
:1007600072068881813081F48FEF96E1A1E181509A
:100770009040A040E1F700C00000809162008B3003
:1007800018F08A508093620081E066E0C0E0D0E01B
:10079000AE010E9472068881813059F48FEF96E194
:1007A000A1E181509040A040E1F700C0000010920C
:1007B00062009091620080E064E670E00E94850D26
:1007C00063BDDF91CF91089583E065E041E00E9431
:1007D000F8040E944509089520E030E040E152E429
:1007E0000E94B90B20E030E040EA50E40E94510B37
:1007F000AB01BC0182E390E00E9472090E945E0995
:1008000008950E946809089583E066E041E00E942F
:10081000F80483E063E040E00E94F80483E063E0D2
:1008200041E00E948E0581E063E00E94D8070E94AB
:10083000BE080E94C9080895CF93DF93EC01809110
:100840006800882381F483E066E041E00E948E0521
:1008500080E58A95F1F783E066E040E00E948E052E
:1008600081E0809368008091870090918800A0913A
:100870008900B0918A0088839983AA83BB83DF9122
:10088000CF9108951F920F920FB60F9211242F93BC
:100890003F934F935F936F937F938F939F93AF9308
:1008A000BF93EF93FF9380916800813009F053C0AC
:1008B00080916700882369F412BE81E0809367000D
:1008C000109263001092640010926500109266000E
:1008D00042C022B78091630090916400A0916500AE
:1008E000B09166006627782F892F9A2F620F711DAD
:1008F000811D911D27E531E040E050E00E94660D2A
:1009000020E032EE44E050E00E94980DCA01B901A7
:100910006F5F7F4F8F4F9F4F0E944D0CDC01CB01CB
:100920008093870090938800A0938900B0938A00F9
:100930008FEF93EFA1E081509040A040E1F700C01D
:1009400000001092630010926400109265001092F3
:10095000660010926700FF91EF91BF91AF919F9158
:100960008F917F916F915F914F913F912F910F9058
:100970000FBE0F901F9018951F920F920FB60F92F7
:1009800011242F938F939F93AF93BF938091630014
:1009900090916400A0916500B09166000196A11D40
:1009A000B11D8093630090936400A0936500B093A1
:1009B0006600873B25E0920720E0A20720E0B2070F
:1009C00068F012BE109268001092670010926300E7
:1009D000109264001092650010926600BF91AF9172
:1009E0009F918F912F910F900FBE0F901F90189590
:1009F000843008F08BC0683008F08AC0423008F0BC
:100A000089C0813041F1813038F0823009F441C031
:100A1000833009F081C05BC0413071F42AB381E0BA
:100A200090E0AC0102C0440F551F6A95E2F7BA018D
:100A3000622B6ABB80E008952AB381E090E0AC01AC
:100A400002C0440F551F6A95E2F7BA016095622310
:100A50006ABB80E00895413069F447B321E030E09B
:100A6000C90102C0880F991F6A95E2F7842B87BBE2
:100A700080E0089527B381E090E0AC0102C0440F0C
:100A8000551F6A95E2F7BA016095622367BB80E063
:100A90000895413069F444B321E030E0C90102C057
:100AA000880F991F6A95E2F7842B84BB80E0089534
:100AB00024B381E090E0AC0102C0440F551F6A9559
:100AC000E2F7BA016095622364BB80E0089541308B
:100AD00071F421B381E090E0AC0102C0440F551FD6
:100AE0006A95E2F7BA01622B61BB80E0089521B3F9
:100AF00081E090E0AC0102C0440F551F6A95E2F717
:100B0000BA016095622361BB80E0089581E0089599
:100B100081E0089581E0089580E00895843008F030
:100B20008BC0683008F08AC0423008F089C081303C
:100B300041F1813038F0823009F441C0833009F04E
:100B400081C05BC0413071F42BB381E090E0AC0117
:100B500002C0440F551F6A95E2F7BA01622B6BBBC6
:100B600080E008952BB381E090E0AC0102C0440F17
:100B7000551F6A95E2F7BA01609562236BBB80E06E
:100B80000895413069F448B321E030E0C90102C062
:100B9000880F991F6A95E2F7842B88BB80E008953F
:100BA00028B381E090E0AC0102C0440F551F6A9564
:100BB000E2F7BA016095622368BB80E00895413096
:100BC00069F445B321E030E0C90102C0880F991FE4
:100BD0006A95E2F7842B85BB80E0089525B381E018
:100BE00090E0AC0102C0440F551F6A95E2F7BA01CC
:100BF0006095622365BB80E00895413071F422B3B3
:100C000081E090E0AC0102C0440F551F6A95E2F705
:100C1000BA01622B62BB80E0089522B381E090E0CC
:100C2000AC0102C0440F551F6A95E2F7BA01609506
:100C3000622362BB80E0089581E0089581E0089519
:100C400081E0089580E00895843008F045C0683060
:100C500008F044C08130B1F0813030F0823001F1D1
:100C6000833009F03DC02AC02BB381E090E0AC0195
:100C700002C0440F551F6A95E2F7BA0162276BBBA9
:100C800080E0089528B381E090E0AC0102C0440FF9
:100C9000551F6A95E2F7BA01622768BB80E00895A4
:100CA00025B381E090E0AC0102C0440F551F6A9566
:100CB000E2F7BA01622765BB80E0089522B381E0C4
:100CC00090E0AC0102C0440F551F6A95E2F7BA01EB
:100CD000622762BB80E0089581E0089581E0089575
:100CE00080E00895843008F049C0683008F048C0BA
:100CF0004115510509F446C08130B1F0813030F022
:100D0000823001F1833009F03FC02AC089B390E0FE
:100D10009C0102C0359527956A95E2F7B90161708B
:100D2000FA01608380E0089586B390E09C0102C0E0
:100D3000359527956A95E2F7B9016170FA016083EC
:100D400080E0089583B390E09C0102C0359527951B
:100D50006A95E2F7B9016170FA01608380E0089555
:100D600080B390E09C0102C0359527956A95E2F723
:100D7000B9016170FA01608380E0089581E008950F
:100D800081E0089581E0089580E00895843008F0BE
:100D900045C0683008F044C08130B1F0813030F097
:100DA000823001F1833009F03DC02AC02BB381E0CD
:100DB00090E0AC0102C0440F551F6A95E2F7BA01FA
:100DC000622B6BBB80E0089528B381E090E0AC011A
:100DD00002C0440F551F6A95E2F7BA01622B68BB47
:100DE00080E0089525B381E090E0AC0102C0440F9B
:100DF000551F6A95E2F7BA01622B65BB80E0089542
:100E000022B381E090E0AC0102C0440F551F6A9507
:100E1000E2F7BA01622B62BB80E0089581E0089599
:100E200081E0089580E008958430A8F5813091F044
:100E3000813028F08230C9F0833079F521C06F3FCE
:100E400029F48AB38FEF8ABB80E008958AB31ABA77
:100E500080E008956F3F29F487B38FEF87BB80E070
:100E6000089587B317BA80E008956F3F29F484B3DB
:100E70008FEF84BB80E0089584B314BA80E00895B6
:100E80006F3F29F481B38FEF81BB80E0089581B378
:100E900011BA80E0089581E0089580E008958430DB
:100EA000A8F4813051F0813028F0823049F083304D
:100EB00079F409C06BBB80E0089568BB80E00895B9
:100EC00065BB80E0089562BB80E0089581E00895ED
:100ED00080E00895843000F561157105F9F08130E6
:100EE00061F0813028F0823069F08330C9F40FC09E
:100EF0008BB3FB01808380E0089588B3FB0180837E
:100F000080E0089585B3FB01808380E0089582B37B
:100F1000FB01808380E0089581E0089581E00895D9
:100F200080E008958430E8F4813061F0813028F069
:100F3000823069F08330B9F40FC08BB380958BBBDE
:100F400080E0089588B3809588BB80E0089585B3DC
:100F5000809585BB80E0089582B3809582BB80E058
:100F6000089581E0089580E008958430E8F48130A8
:100F700061F0813028F0823069F08330B9F40FC01D
:100F80008BB38FEF8BBB80E0089588B38FEF88BB66
:100F900080E0089585B38FEF85BB80E0089582B32C
:100FA0008FEF82BB80E0089581E0089580E008958E
:100FB000813071F1813020F0823009F060C050C082
:100FC000613071F0613028F0623089F06330E1F413
:100FD00015C085B7816085BF85B7826085BF14C0A5
:100FE00085B78E7F85BF85B7826085BF0DC085B709
:100FF0008E7F85BF85B78D7F85BF06C085B7816031
:1010000085BF85B78D7F85BF8BB780648BBF089503
:10101000613071F0613028F0623089F06330E1F4C2
:1010200015C085B7846085BF85B7886085BF14C04B
:1010300085B78B7F85BF85B7886085BF0DC085B7B5
:101040008B7F85BF85B7877F85BF06C085B78460E6
:1010500085BF85B7877F85BF8BB780688BBF0895B5
:10106000662319F0613041F404C084B7806484BF02
:1010700003C084B78F7B84BF8BB780628BBF08951A
:10108000813049F0813018F0823061F408C08BB7AC
:101090008F7B8BBF08958BB78F778BBF08958BB7EE
:1010A0008F7D8BBF0895009721F090936A00809305
:1010B00069000895009721F090936C0080936B0075
:1010C0000895009721F090936E0080936D0008952D
:1010D0001F920F920FB60F9211242F933F934F93AD
:1010E0005F936F937F938F939F93AF93BF93EF9390
:1010F000FF93E0916900F0916A00309709F009953B
:10110000FF91EF91BF91AF919F918F917F916F91DF
:101110005F914F913F912F910F900FBE0F901F90B5
:1011200018951F920F920FB60F9211242F933F9391
:101130004F935F936F937F938F939F93AF93BF93DF
:10114000EF93FF93E0916D00F0916E00309709F0FE
:101150000995FF91EF91BF91AF919F918F917F91F1
:101160006F915F914F913F912F910F900FBE0F9014
:101170001F9018958FB780688FBF089583B78F7BB6
:1011800083BF83B7877F83BF12BE89B7816089BF62
:10119000089583B7816083BF83B78D7F83BF83B793
:1011A0008B7F83BF089583B78E7F83BF83B78D7F87
:1011B00083BF83B78B7F83BF089529EF2CBF9093A4
:1011C000700080936F00089520E030E048EC52E416
:1011D0000E94B90B20E030E040E853E40E94030D88
:1011E00020E030E040E85FE30E94500B0E94210CB9
:1011F0006CBF0895009721F0909372008093710066
:101200000895009721F090937400809373000895DF
:101210001F920F920FB60F9211242F933F934F936B
:101220005F936F937F938F939F93AF93BF93EF934E
:10123000FF938091750090917600019690937600CF
:101240008093750020916F00309170008217930792
:1012500059F41092760010927500E0917300F091AD
:101260007400309709F00995FF91EF91BF91AF910C
:101270009F918F917F916F915F914F913F912F91AE
:101280000F900FBE0F901F9018958FB58E7F8FBD5A
:101290008FB582608FBD8EB588608EBD8EB5806142
:1012A0008EBD8FB58F7B8FBD8FB580688FBD8FB59D
:1012B0008F7E8FBD8FB580628FBD08958EB58160A2
:1012C0008EBD8EB582608EBD8EB58B7F8EBD08952E
:1012D0008EB58E7F8EBD8EB58D7F8EBD8EB58B7F8C
:1012E0008EBD0895CF92DF92EF92FF92CF93DF935E
:1012F000EC016A017B01CB01BA0120E030E048EC4F
:1013000052E40E94B50B18165CF19E0140E050E0DB
:1013100060E970ED83E090E00E94980D215030402C
:1013200037BD26BD66B577B56F5F7F4F80E090E033
:101330000E944D0CA70196010E94030D20E030E0B1
:1013400048EC52E40E94B90B20E030E040E85FE353
:101350000E94500B0E94210CDC01CB019BBD8ABD79
:10136000DF91CF91FF90EF90DF90CF90089585B5FA
:10137000806485BD85B5877F85BD85B5806185BD68
:1013800085B5806285BD089585B58E7F85BD85B59F
:101390008D7F85BD85B5846085BD089585B58E7FBB
:1013A00085BD85B58D7F85BD85B58B7F85BD089550
:1013B00029EF23BD9093780080937700089520E073
:1013C00030E048EC52E40E94B90B20E030E040E805
:1013D00053E40E94030D9B01AC0160E070E08FE7D5
:1013E00093E40E94500B0E94210C63BD089520E0FD
:1013F00030E048EC52E40E94B90B20E030E040E8D5
:1014000053E40E94030D9B01AC0160E070E080E8B2
:1014100093E40E94500B0E94210C63BD0895009735
:1014200021F090937A00809379000895009721F03D
:1014300090937C0080937B0008951F920F920FB6CB
:101440000F9211242F933F934F935F936F937F934A
:101450008F939F93AF93BF93EF93FF9380917D0002
:1014600090917E00019690937E0080937D0023E012
:10147000813D920769F410927E0010927D0081E711
:1014800084BDE0917900F0917A00309709F00995D8
:10149000FF91EF91BF91AF919F918F917F916F914C
:1014A0005F914F913F912F910F900FBE0F901F9022
:1014B00018951F920F920FB60F9211242F933F93FE
:1014C0004F935F936F937F938F939F93AF93BF934C
:1014D000EF93FF9380917F0090918000019690930D
:1014E000800080937F0020917700309178008217F0
:1014F000930759F41092800010927F00E0917B00D6
:10150000F0917C00309709F00995FF91EF91BF9120
:10151000AF919F918F917F916F915F914F913F918B
:101520002F910F900FBE0F901F901895529886E83C
:1015300080BD87E689B910BC5998579A569A559A32
:10154000539A549A0895009729F05F9BFECF2CB1CF
:10155000FC01208308958CB98BB185FFFDCF0895E0
:101560000F931F93CF938C01FC018081882351F04E
:10157000C0E00E94AB0ACF5FF801EC0FF11D808143
:101580008823B9F7CF911F910F910895909382000E
:101590008093810008959093840080938300089540
:1015A000909386008093850008951F920F920FB646
:1015B0000F9211242F933F934F935F936F937F93D9
:1015C0008F939F93AF93BF93EF93FF93E09181002D
:1015D000F0918200309709F00995FF91EF91BF914A
:1015E000AF919F918F917F916F915F914F913F91BB
:1015F0002F910F900FBE0F901F9018951F920F9272
:101600000FB60F9211242F933F934F935F936F93D5
:101610007F938F939F93AF93BF93EF93FF93E0914B
:101620008300F0918400309709F00995FF91EF91C4
:10163000BF91AF919F918F917F916F915F914F91EA
:101640003F912F910F900FBE0F901F9018951F92F2
:101650000F920FB60F9211242F933F934F935F93E6
:101660006F937F938F939F93AF93BF93EF93FF936A
:10167000E0918500F0918600309709F00995FF917F
:10168000EF91BF91AF919F918F917F916F915F91FA
:101690004F913F912F910F900FBE0F901F90189573
:1016A0005058BB27AA270ED070C161D130F066D147
:1016B00020F031F49F3F11F41EF456C10EF4E09572
:1016C000E7FB4CC1E92F72D180F3BA1762077307A9
:1016D0008407950718F071F49EF58AC10EF4E09521
:1016E0000B2EBA2FA02D0B01B90190010C01CA01DC
:1016F000A0011124FF27591B99F0593F50F4503E87
:1017000068F11A16F040A22F232F342F4427585F78
:10171000F3CF469537952795A795F0405395C9F790
:101720007EF41F16BA0B620B730B840BBAF0915048
:10173000A1F0FF0FBB1F661F771F881FC2F70EC0E7
:10174000BA0F621F731F841F48F4879577956795BA
:10175000B795F7959E3F08F0B3CF9395880F08F0A3
:101760009927EE0F979587950895D4D008F481E0D6
:1017700008950CD00AC102D140F0F9D030F021F424
:101780005F3F19F0EBC0511134C1EEC00FD198F397
:101790009923C9F35523B1F3951B550BBB27AA27F2
:1017A00062177307840738F09F5F5F4F220F331F64
:1017B000441FAA1FA9F333D00E2E3AF0E0E830D030
:1017C00091505040E695001CCAF729D0FE2F27D033
:1017D000660F771F881FBB1F261737074807AB0701
:1017E000B0E809F0BB0B802DBF01FF2793585F4F76
:1017F0002AF09E3F510568F0B1C0FBC05F3FECF39B
:10180000983EDCF3869577956795B795F7959F5F3A
:10181000C9F7880F911D9695879597F90895E1E08E
:10182000660F771F881FBB1F621773078407BA07ED
:1018300020F0621B730B840BBA0BEE1F88F7E09548
:101840000895BCD088F09F5790F0B92F9927B751D1
:10185000A0F0D1F0660F771F881F991F1AF0BA9574
:10186000C9F712C0B13081F0C3D0B1E00895C0C053
:10187000672F782F8827B85F39F0B93FCCF386956A
:1018800077956795B395D9F73EF4909580957095C7
:1018900061957F4F8F4F9F4F0895E89409C097FB44
:1018A0003EF490958095709561957F4F8F4F9F4F37
:1018B0009923A9F0F92F96E9BB279395F69587957B
:1018C00077956795B795F111F8CFFAF4BB0F11F43E
:1018D00060FF1BC06F5F7F4F8F4F9F4F16C08823E5
:1018E00011F096E911C0772321F09EE8872F762F1B
:1018F00005C0662371F096E8862F70E060E02AF05C
:101900009A95660F771F881FDAF7880F9695879547
:1019100097F90895990F0008550FAA0BE0E8FEEF1C
:1019200016161706E807F907C0F012161306E407A3
:10193000F50798F0621B730B840B950B39F40A269C
:1019400061F0232B242B252B21F408950A2609F47A
:10195000A140A6958FEF811D811D089597F99F677E
:1019600080E870E060E008959FEF80EC0895002427
:101970000A941616170618060906089500240A94F4
:1019800012161306140605060895092E0394000C7A
:1019900011F4882352F0BB0F40F4BF2B11F460FF09
:1019A00004C06F5F7F4F8F4F9F4F089557FD905832
:1019B000440F551F59F05F3F71F04795880F97FB13
:1019C000991F61F09F3F79F08795089512161306CD
:1019D0001406551FF2CF4695F1DF08C016161706FC
:1019E0001806991FF1CF8695710561050894089531
:1019F000E894BB2766277727CB0197F908958ADFFC
:101A000008F48FEF08950BD0C0CFB1DF28F0B6DF18
:101A100018F0952309F0A2CFA7CF1124EACFC6DF93
:101A2000A0F3959FD1F3950F50E0551F629FF001F1
:101A3000729FBB27F00DB11D639FAA27F00DB11D4A
:101A4000AA1F649F6627B00DA11D661F829F2227D3
:101A5000B00DA11D621F739FB00DA11D621F839F5A
:101A6000A00D611D221F749F3327A00D611D231F30
:101A7000849F600D211D822F762F6A2F11249F577E
:101A800050408AF0E1F088234AF0EE0FFF1FBB1FA1
:101A9000661F771F881F91505040A9F79E3F510540
:101AA00070F05CCFA6CF5F3FECF3983EDCF38695F9
:101AB00077956795B795F795E7959F5FC1F7FE2BEB
:101AC000880F911D9695879597F90895629FD0018B
:101AD000739FF001829FE00DF11D649FE00DF11DE9
:101AE000929FF00D839FF00D749FF00D659FF00D98
:101AF0009927729FB00DE11DF91F639FB00DE11D85
:101B0000F91FBD01CF011124089597FB092E072667
:101B10000AD077FD04D02ED006D000201AF470959C
:101B200061957F4F0895F6F7909581959F4F0895A1
:101B3000A1E21A2EAA1BBB1BFD010DC0AA1FBB1FD1
:101B4000EE1FFF1FA217B307E407F50720F0A21B43
:101B5000B30BE40BF50B661F771F881F991F1A94B0
:101B600069F760957095809590959B01AC01BD01DA
:101B7000CF010895AA1BBB1B51E107C0AA1FBB1FC1
:101B8000A617B70710F0A61BB70B881F991F5A9509
:101B9000A9F780959095BC01CD010895F894FFCFE9
:021BA000230020
:00000001FF
